{
  "_format": "hh-sol-artifact-1",
  "contractName": "WavePortal",
  "sourceName": "contracts/wavePortal.sol",
  "abi": [
    {
      "inputs": [],
      "stateMutability": "payable",
      "type": "constructor"
    },
    {
      "anonymous": false,
      "inputs": [
        {
          "indexed": true,
          "internalType": "address",
          "name": "from",
          "type": "address"
        },
        {
          "indexed": false,
          "internalType": "uint256",
          "name": "timestamp",
          "type": "uint256"
        },
        {
          "indexed": false,
          "internalType": "string",
          "name": "message",
          "type": "string"
        }
      ],
      "name": "NewWave",
      "type": "event"
    },
    {
      "inputs": [],
      "name": "getAllWaves",
      "outputs": [
        {
          "components": [
            {
              "internalType": "address",
              "name": "waver",
              "type": "address"
            },
            {
              "internalType": "string",
              "name": "hash",
              "type": "string"
            },
            {
              "internalType": "string",
              "name": "message",
              "type": "string"
            },
            {
              "internalType": "uint256",
              "name": "timestamp",
              "type": "uint256"
            }
          ],
          "internalType": "struct WavePortal.Wave[]",
          "name": "",
          "type": "tuple[]"
        }
      ],
      "stateMutability": "view",
      "type": "function"
    },
    {
      "inputs": [],
      "name": "getTotalWaves",
      "outputs": [
        {
          "internalType": "uint256",
          "name": "",
          "type": "uint256"
        }
      ],
      "stateMutability": "view",
      "type": "function"
    },
    {
      "inputs": [
        {
          "internalType": "address",
          "name": "",
          "type": "address"
        }
      ],
      "name": "lastWavedAt",
      "outputs": [
        {
          "internalType": "uint256",
          "name": "",
          "type": "uint256"
        }
      ],
      "stateMutability": "view",
      "type": "function"
    },
    {
      "inputs": [
        {
          "internalType": "string",
          "name": "_message",
          "type": "string"
        },
        {
          "internalType": "string",
          "name": "hash",
          "type": "string"
        }
      ],
      "name": "wave",
      "outputs": [],
      "stateMutability": "nonpayable",
      "type": "function"
    }
  ],
  "bytecode": "0x60806040526200003360405180606001604052806025815260200162001627602591396200005b60201b6200076e1760201c565b60644442620000439190620001a8565b6200004f919062000245565b600281905550620002ec565b620000fb8160405160240162000072919062000168565b6040516020818303038152906040527f41304fac000000000000000000000000000000000000000000000000000000007bffffffffffffffffffffffffffffffffffffffffffffffffffffffff19166020820180517bffffffffffffffffffffffffffffffffffffffffffffffffffffffff8381831617835250505050620000fe60201b60201c565b50565b60008151905060006a636f6e736f6c652e6c6f679050602083016000808483855afa5050505050565b600062000134826200018c565b62000140818562000197565b9350620001528185602086016200020f565b6200015d81620002db565b840191505092915050565b6000602082019050818103600083015262000184818462000127565b905092915050565b600081519050919050565b600082825260208201905092915050565b6000620001b58262000205565b9150620001c28362000205565b9250827fffffffffffffffffffffffffffffffffffffffffffffffffffffffffffffffff03821115620001fa57620001f96200027d565b5b828201905092915050565b6000819050919050565b60005b838110156200022f57808201518184015260208101905062000212565b838111156200023f576000848401525b50505050565b6000620002528262000205565b91506200025f8362000205565b925082620002725762000271620002ac565b5b828206905092915050565b7f4e487b7100000000000000000000000000000000000000000000000000000000600052601160045260246000fd5b7f4e487b7100000000000000000000000000000000000000000000000000000000600052601260045260246000fd5b6000601f19601f8301169050919050565b61132b80620002fc6000396000f3fe608060405234801561001057600080fd5b506004361061004c5760003560e01c806351872959146100515780639a2cdc081461006d578063a42a46631461008b578063bd43a908146100bb575b600080fd5b61006b60048036038101906100669190610b53565b6100d9565b005b610075610528565b6040516100829190610f1c565b60405180910390f35b6100a560048036038101906100a09190610b2a565b610573565b6040516100b29190610f1c565b60405180910390f35b6100c361058b565b6040516100d09190610dde565b60405180910390f35b42610384600460003373ffffffffffffffffffffffffffffffffffffffff1673ffffffffffffffffffffffffffffffffffffffff16815260200190815260200160002054610127919061102e565b10610167576040517f08c379a000000000000000000000000000000000000000000000000000000000815260040161015e90610edc565b60405180910390fd5b42600460003373ffffffffffffffffffffffffffffffffffffffff1673ffffffffffffffffffffffffffffffffffffffff1681526020019081526020016000208190555060016000808282546101bd919061102e565b925050819055506102056040518060400160405280601c81526020017f257320706f737465642025732077697468206d65737361676520257300000000815250338385610807565b6001339080600181540180825580915050600190039060005260206000200160009091909190916101000a81548173ffffffffffffffffffffffffffffffffffffffff021916908373ffffffffffffffffffffffffffffffffffffffff160217905550600360405180608001604052803373ffffffffffffffffffffffffffffffffffffffff16815260200183815260200184815260200142815250908060018154018082558091505060019003906000526020600020906004020160009091909190915060008201518160000160006101000a81548173ffffffffffffffffffffffffffffffffffffffff021916908373ffffffffffffffffffffffffffffffffffffffff160217905550602082015181600101908051906020019061032d929190610a0a565b50604082015181600201908051906020019061034a929190610a0a565b5060608201518160030155505060646002544244610368919061102e565b610372919061102e565b61037c9190611165565b6002819055506103c36040518060400160405280601681526020017f52616e646f6d20232067656e6572617465643a202564000000000000000000008152506002546108a9565b603260025410156104d45761040d6040518060400160405280600a81526020017f257320796f7520776f6e0000000000000000000000000000000000000000000081525033610945565b6000655af3107a400090504781111561042557600080fd5b60003373ffffffffffffffffffffffffffffffffffffffff168260405161044b90610dc9565b60006040518083038185875af1925050503d8060008114610488576040519150601f19603f3d011682016040523d82523d6000602084013e61048d565b606091505b50509050806104d1576040517f08c379a00000000000000000000000000000000000000000000000000000000081526004016104c890610efc565b60405180910390fd5b50505b3373ffffffffffffffffffffffffffffffffffffffff167f5f7e16dc676677766a70e9c5628aa6c54ddb8b6e5188e2ae1e1f17f1ffbea716428460405161051c929190610f37565b60405180910390a25050565b600061056b6040518060400160405280601881526020017f5765206861766520256420746f74616c207761766573203000000000000000008152506000546108a9565b600054905090565b60046020528060005260406000206000915090505481565b60606003805480602002602001604051908101604052809291908181526020016000905b8282101561076557838290600052602060002090600402016040518060800160405290816000820160009054906101000a900473ffffffffffffffffffffffffffffffffffffffff1673ffffffffffffffffffffffffffffffffffffffff1673ffffffffffffffffffffffffffffffffffffffff16815260200160018201805461063890611102565b80601f016020809104026020016040519081016040528092919081815260200182805461066490611102565b80156106b15780601f10610686576101008083540402835291602001916106b1565b820191906000526020600020905b81548152906001019060200180831161069457829003601f168201915b505050505081526020016002820180546106ca90611102565b80601f01602080910402602001604051908101604052809291908181526020018280546106f690611102565b80156107435780601f1061071857610100808354040283529160200191610743565b820191906000526020600020905b81548152906001019060200180831161072657829003601f168201915b50505050508152602001600382015481525050815260200190600101906105af565b50505050905090565b610804816040516024016107829190610e00565b6040516020818303038152906040527f41304fac000000000000000000000000000000000000000000000000000000007bffffffffffffffffffffffffffffffffffffffffffffffffffffffff19166020820180517bffffffffffffffffffffffffffffffffffffffffffffffffffffffff83818316178352505050506109e1565b50565b6108a3848484846040516024016108219493929190610e52565b6040516020818303038152906040527f245986f2000000000000000000000000000000000000000000000000000000007bffffffffffffffffffffffffffffffffffffffffffffffffffffffff19166020820180517bffffffffffffffffffffffffffffffffffffffffffffffffffffffff83818316178352505050506109e1565b50505050565b61094182826040516024016108bf929190610eac565b6040516020818303038152906040527f9710a9d0000000000000000000000000000000000000000000000000000000007bffffffffffffffffffffffffffffffffffffffffffffffffffffffff19166020820180517bffffffffffffffffffffffffffffffffffffffffffffffffffffffff83818316178352505050506109e1565b5050565b6109dd828260405160240161095b929190610e22565b6040516020818303038152906040527f319af333000000000000000000000000000000000000000000000000000000007bffffffffffffffffffffffffffffffffffffffffffffffffffffffff19166020820180517bffffffffffffffffffffffffffffffffffffffffffffffffffffffff83818316178352505050506109e1565b5050565b60008151905060006a636f6e736f6c652e6c6f679050602083016000808483855afa5050505050565b828054610a1690611102565b90600052602060002090601f016020900481019282610a385760008555610a7f565b82601f10610a5157805160ff1916838001178555610a7f565b82800160010185558215610a7f579182015b82811115610a7e578251825591602001919060010190610a63565b5b509050610a8c9190610a90565b5090565b5b80821115610aa9576000816000905550600101610a91565b5090565b6000610ac0610abb84610f8c565b610f67565b905082815260208101848484011115610ad857600080fd5b610ae38482856110c0565b509392505050565b600081359050610afa816112de565b92915050565b600082601f830112610b1157600080fd5b8135610b21848260208601610aad565b91505092915050565b600060208284031215610b3c57600080fd5b6000610b4a84828501610aeb565b91505092915050565b60008060408385031215610b6657600080fd5b600083013567ffffffffffffffff811115610b8057600080fd5b610b8c85828601610b00565b925050602083013567ffffffffffffffff811115610ba957600080fd5b610bb585828601610b00565b9150509250929050565b6000610bcb8383610d41565b905092915050565b610bdc81611084565b82525050565b610beb81611084565b82525050565b6000610bfc82610fcd565b610c068185610ff0565b935083602082028501610c1885610fbd565b8060005b85811015610c545784840389528151610c358582610bbf565b9450610c4083610fe3565b925060208a01995050600181019050610c1c565b50829750879550505050505092915050565b6000610c7182610fd8565b610c7b818561100c565b9350610c8b8185602086016110cf565b610c9481611252565b840191505092915050565b6000610caa82610fd8565b610cb4818561101d565b9350610cc48185602086016110cf565b610ccd81611252565b840191505092915050565b6000610ce560178361101d565b9150610cf082611263565b602082019050919050565b6000610d0860278361101d565b9150610d138261128c565b604082019050919050565b6000610d2b600083611001565b9150610d36826112db565b600082019050919050565b6000608083016000830151610d596000860182610bd3565b5060208301518482036020860152610d718282610c66565b91505060408301518482036040860152610d8b8282610c66565b9150506060830151610da06060860182610dab565b508091505092915050565b610db4816110b6565b82525050565b610dc3816110b6565b82525050565b6000610dd482610d1e565b9150819050919050565b60006020820190508181036000830152610df88184610bf1565b905092915050565b60006020820190508181036000830152610e1a8184610c9f565b905092915050565b60006040820190508181036000830152610e3c8185610c9f565b9050610e4b6020830184610be2565b9392505050565b60006080820190508181036000830152610e6c8187610c9f565b9050610e7b6020830186610be2565b8181036040830152610e8d8185610c9f565b90508181036060830152610ea18184610c9f565b905095945050505050565b60006040820190508181036000830152610ec68185610c9f565b9050610ed56020830184610dba565b9392505050565b60006020820190508181036000830152610ef581610cd8565b9050919050565b60006020820190508181036000830152610f1581610cfb565b9050919050565b6000602082019050610f316000830184610dba565b92915050565b6000604082019050610f4c6000830185610dba565b8181036020830152610f5e8184610c9f565b90509392505050565b6000610f71610f82565b9050610f7d8282611134565b919050565b6000604051905090565b600067ffffffffffffffff821115610fa757610fa6611223565b5b610fb082611252565b9050602081019050919050565b6000819050602082019050919050565b600081519050919050565b600081519050919050565b6000602082019050919050565b600082825260208201905092915050565b600081905092915050565b600082825260208201905092915050565b600082825260208201905092915050565b6000611039826110b6565b9150611044836110b6565b9250827fffffffffffffffffffffffffffffffffffffffffffffffffffffffffffffffff0382111561107957611078611196565b5b828201905092915050565b600061108f82611096565b9050919050565b600073ffffffffffffffffffffffffffffffffffffffff82169050919050565b6000819050919050565b82818337600083830152505050565b60005b838110156110ed5780820151818401526020810190506110d2565b838111156110fc576000848401525b50505050565b6000600282049050600182168061111a57607f821691505b6020821081141561112e5761112d6111f4565b5b50919050565b61113d82611252565b810181811067ffffffffffffffff8211171561115c5761115b611223565b5b80604052505050565b6000611170826110b6565b915061117b836110b6565b92508261118b5761118a6111c5565b5b828206905092915050565b7f4e487b7100000000000000000000000000000000000000000000000000000000600052601160045260246000fd5b7f4e487b7100000000000000000000000000000000000000000000000000000000600052601260045260246000fd5b7f4e487b7100000000000000000000000000000000000000000000000000000000600052602260045260246000fd5b7f4e487b7100000000000000000000000000000000000000000000000000000000600052604160045260246000fd5b6000601f19601f8301169050919050565b7f576169742061746c65617374203135206d696e75746573000000000000000000600082015250565b7f4661696c656420746f207769746864726177206d6f6e65792066726f6d20636f60008201527f6e74726163742e00000000000000000000000000000000000000000000000000602082015250565b50565b6112e781611084565b81146112f257600080fd5b5056fea2646970667358221220cb6f5d3d9c28e4dce955be921d13129924bf80ebc91ee3004528e091e006620164736f6c63430008040033596f20796f2c204920616d206120636f6e747261637420616e64204920616d20736d617274",
  "linkReferences": {},
  "deployedLinkReferences": {}
}